:020000040000FA
:060000000A128A110C280F
:10000800FE00030EF2000A08F3000A128A11822881
:100018000A128A110F28F401F50183010A128A11C4
:1000280092288312031306181A281B282928081057
:100038004130F100EE30F000F00B2028F10B2028C1
:1000480000008312031308145F2886182C282D2813
:100058003B2888104130F100EE30F000F00B3228D8
:10006800F10B322800008312031388145F28061945
:100078003E283F284D2808114130F100EE30F000AD
:10008800F00B4428F10B44280000831203130815D1
:100098005F288619502851285F2888114130F100BF
:1000A800EE30F000F00B5628F10B562800008312B2
:1000B800031388155F280B100800831603130F0815
:1000C8008F3960388F000F148B178B158316031721
:1000D80089018801FF308316031386008801811384
:1000E800FF309500FF30831203138600FF3088002D
:1000F8000B100F3083160313960008000B1C85287D
:1001080086288B280A128A1115200A128A11730868
:100118008A00720E8300FE0E7E0E09000A128A11F2
:0E01280061200A128A1197280A128A110C28E7
:04400E00C420FF3F8C
:00000001FF
